:101000000000042075E600009DE600009FE6000059
:10101000A1E60000A3E60000A5E600000000000035
:10102000000000000000000000000000A7E6000033
:10103000A9E6000000000000ABE60000ADE60000FD
:10104000C9B70000B9A20000AFE60000AFE600009B
:10105000AFE60000AFE60000AFE60000AFE600003C
:10106000AFE60000AFE60000AFE60000AFE600002C
:10107000AFE60000D9410000AFE60000AFE6000097
:10108000AFE60000AFE60000AFE60000AFE600000C
:10109000AFE60000AFE60000AFE60000AFE60000FC
:1010A000AFE60000AFE60000AFE60000AFE60000EC
:1010B000AFE60000AFE60000000000000000000006
:1010C000AFE60000AFE60000AFE60000AFE60000CC
:1010D00009350000AFE60000AFE60000CDC6000015
:1010E000AFE60000AFE60000AFE600000000000041
:1010F00000000000AFE6000000000000AFE60000C6
:1011000000000000000000000000000000000000DF
:1011100000000000000000000000000000000000CF
:1011200000000000000000000000000000000000BF
:1011300000000000000000000000000000000000AF
:10114000000000000000000000000000000000009F
:10115000000000000000000000000000000000008F
:10116000000000000000000000000000000000007F
:10117000000000000000000000000000000000006F
:10118000000000000000000000000000000000005F
:10119000000000000000000000000000000000004F
:1011A000000000000000000000000000000000003F
:1011B000000000000000000000000000000000002F
:1011C000000000000000000000000000000000001F
:1011D000000000000000000000000000000000000F
:1011E00000000000000000000000000000000000FF
:1011F00000000000000000000000000000000000EF
:1012000010B5054C237833B9044B13B10448AFF340
:1012100000800123237010BDD000002000000000DA
:10122000FC12010008B5034B1BB103490348AFF39F
:10123000008008BD00000000D4000020FC12010066
:10124000A3F5803A704700BF174B002B08BF134B24
:101250009D46FFF7F5FF00218B460F461348144AC1
:10126000121A0DF0E9FF0E4B002B00D098470D4BE2
:10127000002B00D098470020002104000D000D48ED
:10128000002802D00C48AFF300800DF07BFF200057
:10129000290000F014F80DF061FF00BF0000080005
:1012A000000000000000000000000420D00000202A
:1012B000305400200000000000000000704770B5AE
:1012C00005460E463146284602F09EFE03F0DAF946
:1012D000044600F019F802F0C1FE18B1204603F0F0
:1012E000D5F9EFE7204603F08CFA204602F0BCFE69
:1012F000F1E710B50C4603F0A3F9204610BD00F04D
:10130000FAB800F0EFB8000010B5044603F07AF91F
:1013100020460249BDE8104000F042B8F312000038
:1013200070B50446154600F08BF904F64213C4F874
:101330003C3904F58A504FF40063C4F83859A4F8D6
:10134000403904F63C1141F26416043006F0ABF863
:10135000A51904F58A50234629460E4A0C3006F09A
:1013600003F904F58B5200231380AA1DA2514FF4F8
:101370000072AA8041F26C320748A35441F27032E5
:10138000A118A0504B60201D0449224605F07AFBAD
:10139000204670BDD1150000BD140000D913000017
:1013A00010B5064C0A4601462046FFF7B9FF00F08B
:1013B000C7F9844200D0FEE710BD00BFF000002056
:1013C000D0F83C2900F642139A4204D100F59B5014
:1013D000103003F0CDBA7047FFF7F2BF2DE9F041AE
:1013E00000F58B570446051D013704F58B5628463A
:1013F00005F04EFC337880B1022B4DD0D4F83C5927
:1014000004F642102D1AA9B2002955D0D4F8383963
:101410009847ADB285424FD0FEE7012B22D0022B78
:101420003AD0002BE3D1204600F090F908B102F049
:10143000E3F8204600F094F90028DFD104F58A5043
:10144000043006F034F80028D8D1284605F06BFCAB
:1014500001233370284605F07BFC60B9284605F06F
:1014600080FC387004F58A503978043006F028F88A
:101470000028EFD0C2E794F89880284605F044FD94
:10148000B8F1000F06D094F898301BB941F26C33D4
:101490000122E2540223337004F58A50043006F02E
:1014A0003DF80028AAD141F26C33E218E35C3070B9
:1014B000002B9CD0107098E7BDE8F08108B500F0D3
:1014C0003FF9BDE80840FFF789BF00F64213C0F8B6
:1014D0003C394FF40063A0F8403900F59B501030C0
:1014E00003F046BA08B500F02BF918B1BDE8084082
:1014F000FFF7EBBF08BD13B50446019100F020F9DA
:1015000048B1019A00F58A5021460C3002B0BDE87E
:10151000104006F031B802B010BD0000F0B50C4626
:10152000A1B015461E4600F025F92346194A1A4F68
:10153000802168460DF0B6FE68460DF0EFFE694664
:101540000246002001F044F80024A642A0B20ED0CA
:10155000292C0BD0A4EB840104EB44002B5D3A460C
:10156000803168440DF09EFE0134EEE7204600EB2A
:101570004000C0F18001094A68440DF093FE6846BE
:101580000DF0CCFE0DF10101421E002001F020F80B
:1015900021B0F0BD1C070100300701003607010033
:1015A00041F26412F8B583588718BE1D9B1B05468F
:1015B0009BB2144641B91A46314600F06BFE4FF417
:1015C00000732E51BB80F8BD3246FFF7A7FFF6E748
:1015D000FFF7E6BF1C282ED8DFE800F0300F11130C
:1015E0002D1517192D2D2D2D1B1D1F212D2D2D27AF
:1015F0002D2D2D25232D2D292B00012070470E2068
:1016000070470B2070470C2070470920704703205B
:101610007047022070470420704711207047122045
:10162000704713207047142070471620704717200A
:1016300070471820704700F58040704700207047C1
:1016400070B50646044646F8041B4FF4006200F1EC
:10165000D101304605F009FA0025266504F154034E
:1016600004F17402C3E9005508339A42FAD1C4E97F
:101670001E55A4F8745004F1800005F08CFC2B4A30
:1016800084F898500421C82384F8C8102849C4F865
:101690009C50C4E928234FF6FF730968A4F8A830CA
:1016A000244BC4F8CC104FF07F410022C4E92B3505
:1016B000C4F81419002304F51361C4E92E23C4E906
:1016C0003023C4F8B45084F8D05084F8D158A4F82A
:1016D000D258C4F8105984F81859C4F81C59C4F8E1
:1016E0002059C4F82459C4F8285984F82C59C1E960
:1016F0000023236803B9FEE70F4B10491C60224604
:10170000304605F0C2F93C22002104F6D4000DF069
:1017100093FD7722002104F1B80001F0E5FA04F10D
:10172000AC0003F025F9204670BD00BF00F8FF07AC
:10173000EC0C0100D11A000068140020371B0000D7
:10174000014B1868704700BF6814002090F8C8303B
:10175000042B1ABF90F8980080F001000020704719
:1017600090F8C830012B06BF90F8980080F0010077
:1017700000207047D0F81C390133C0F81C3970477D
:101780002DE9F843994690F814390D1E0446164683
:1017900008BF702513B10D20BDE8F88300F1B8072C
:1017A0002946384601F01EFB0028F4D194F8D228CF
:1017B00094F8D3389A420AD00B220021384601F01F
:1017C00093FA04F1AC0003F0D3F80320E4E704F14A
:1017D00050082B4606228021404605F0E3FD48B91B
:1017E000206D1FFA89F2314605F064FB10B94046BE
:1017F00005F0BBFD0328CFD1DEE700000138042847
:101800009ABF024B185C0020704700BF39070100E7
:10181000F8B511F00F0601F00F0708D1022A04D124
:101820001A463146B83001F05FFA3046F8BD90F8FC
:10183000D35890F8D2186C1A0E2C06DD0E22002117
:10184000B83001F051FA0326EFE790F8D148B442DE
:1018500018D08D4216D90C460E2C02D90F3CE4B29A
:10186000FAE704F50D7400EB840494F804C01CF04E
:10187000100F0DD00CF00F0EB64509D16FF3041CFC
:1018800084F804C02C460E2C05D90F3CE4B2FAE7CC
:101890000131C9B2DDE702F0030247F0100141EA6D
:1018A000421104F50D74084A00EB840402EAC313E4
:1018B0001943636803F00043194301356160002652
:1018C00080F8D358B1E700BF80FFFF7F13460222A4
:1018D000FFF79EBF38B511F0300F00F1500408BF7C
:1018E000C0F89C20154600230622204605F05AFD2C
:1018F00048B92946204605F09DFC20B92046BDE8A0
:10190000384005F032BD38BD2DE9F74304460D4699
:101910006846114691461E4600F08EFEDDE90078CD
:101920002FB918F0010F02D1E6B932461BE004F1DD
:1019300050064B4606222946304605F033FDC8B90D
:101940004FEA680318F0010F18BFE35804EB680072
:1019500018BFDF59B84768B9304603B0BDE8F04357
:1019600005F003BD0D222946204603B0BDE8F04333
:10197000FFF7B0BF03B0BDE8F08370B504460026A2
:1019800094F8D25894F8D338AB4238D005F50D7599
:1019900004EB85021379D90616D404EB85052B795F
:1019A0006FF304132B7194F8D2380133DBB20F2B91
:1019B00084F8D238E4D194F8D33884F8D2680E2B66
:1019C0001AD90F3BDBB2FAE703F00F01526803F0BC
:1019D0006003402B41F08001C2F3D71205D12046AD
:1019E000FFF778FF0028D8D070BDB3FA83F35B0906
:1019F0002046FFF789FFF5E784F8D338C0E70020D9
:101A0000F2E700002DE9F74FD0E92E2313430446F7
:101A10004BD0B83001F066F92C4F804600254FF0CE
:101A2000010AEBB2434540D2D4E92E30C5F1200182
:101A3000A5F12002EB4000FA01F10B4320FA02F27B
:101A4000134313F0010FC5F12009A5F1200602D1BF
:101A50000C370135E5E73A686ABBD7F804B0BBF14B
:101A6000770F06D1206801F0ADFD082898BF00F17E
:101A7000700B5A4680212046FFF72CFFA8B9D4E905
:101A80002E120AFA06F62AFA09F90AFA05F321EAE9
:101A9000030346EA0906009322EA06030193DDE9FF
:101AA0000023C4E92E231343D2D1012384F82C3917
:101AB00003B0BDE8F08F94F82C39002BDFD0012360
:101AC00080212046FFF720FFD8E700BF7C0A0100F5
:101AD000014B1868FFF796BF6814002090F8983003
:101AE00010B5044633B1D0F8CC308B4204BF00238C
:101AF00080F898302046FFF740FFD8B994F8D0100E
:101B000099B101230C222046FFF7FEFE90B994F80C
:101B1000C83084F8D000042B07D0201D05F0B6F89B
:101B20000123C4F8CC0084F898302046BDE810406A
:101B3000FFF768BF10BDFFF7D1BFF8B500F1500542
:101B400004462846069EBDF81C7005F02BFC50B9D3
:101B5000206D3A46314605F0ADF920B92846BDE87A
:101B6000F84005F002BCF8BD2DE9F04F042B87B01A
:101B700004460D46174602D0052B18D0FEE7114645
:101B800004A800F071FDDDE904864FF0070906F0B6
:101B9000010BB8F1000F13D1BBF1000F10D10D22D2
:101BA00029462046FFF792FE07B0BDE8F08F1146A8
:101BB00004A800F065FD4FF00809DDE90486E6E7BA
:101BC00004F1800A504605F0C5FA0DF10A0203A996
:101BD000504605F09FFA504605F0C3FA002384F8FA
:101BE000143904EB66007310BBF1000F02D0E35808
:101BF00053F80880C047012384F81439064618B109
:101C0000FFF7E8FC0246CBE7BDF80A300193039BDF
:101C100000934A463B4629462046FFF78EFF0028A0
:101C2000C2D03246BCE708B50022FFF74FFE08BD20
:101C300037B50223B0F888208DF80730B0F8863029
:101C40009A4204461AD1206802F024FD00234FF482
:101C50007F42A4F8162984F8123984F81839C4F898
:101C60001C39C4F82039C4F82439C4F82839702242
:101C700080212046FFF72EFE88B1FEE70DF1070117
:101C8000803005F0A0F9054600B1FEE79DF8073069
:101C90002068022BD7D002F0FBFC024B1D60002015
:101CA00003B030BD6814002010B50446006802F08F
:101CB000FAFC0146206DBDE8104005F0E8B810B50B
:101CC0000446006802F086FD0146206DBDE8104024
:101CD00005F0DDB837B50023054601A98030019332
:101CE00005F0F3F9044688B99DF80410286802F05D
:101CF00073FD044650B9286802F0D5FC30B195F860
:101D000012391BB1286802F0F3FC0446204603B0E8
:101D100030BD10B50446006802F0CEFC002818BFA4
:101D20000221206D08BF0021BDE8104005F0AFB8CA
:101D300013B5002304460DF1070180308DF80730FC
:101D400005F041F958B99DF8073023B1013B012B4B
:101D500007D9072003E00146206802F0B3FC02B077
:101D600010BD0121F8E710B5044654F8500B02F0FD
:101D700036FD01462046BDE8104005F0FFB913B519
:101D800004460DF10601803005F04BF920B9BDF88D
:101D90000610206802F025FD02B010BD10B5044603
:101DA000006802F021FD08220146206DBDE81040C8
:101DB00005F080B813B50822044601A9803005F06B
:101DC0009BF918B90199206802F010FD02B010BD0E
:101DD00010B5044654F8500B02F00BFD01462046A6
:101DE000BDE8104005F0CAB990F81219006D05F071
:101DF0004EB837B5002305460DF1070180308DF848
:101E0000073005F0F0F8044670B9286802F04BFC82
:101E100030B19DF8073028684BB102F069FC0446E8
:101E20009DF8073085F81239204603B030BD02F026
:101E300055FCF4E710B50446006803F077FD014651
:101E4000206DBDE8104005F022B810B504460068CA
:101E500003F06EFD0146206DBDE8104005F017B897
:101E6000F8B505460E460024012707FA04F333426D
:101E7000E1B204D10134202CF7D1002004E0286D18
:101E800005F005F80028F5D0F8BD0023F7B50546A4
:101E90000C460B6000F180070126B5F88620B5F8E6
:101EA00088309A420FD00DF10701384605F08BF8C3
:101EB00050B99DF807301F2B08D8226806FA03F3A3
:101EC00013432360E9E7002003B0F0BD0720FBE7E0
:101ED000D0F8A010FFF7C4BF13B5002301A9044632
:101EE0000193FFF7D2FF10B9019BC4F8A03002B0F4
:101EF00010BDB0F8A410503005F040B900F1A401B5
:101F0000803005F08EB810B50446006802F0CBFBB7
:101F1000014628B194F9173901330CBF0021022181
:101F2000206DBDE8104004F0B2BF000037B50023BB
:101F300005460DF1070180308DF8073005F043F8B4
:101F4000044608BB9DF80730F3B1022B1FD1286867
:101F500002F0A9FBC0B195F91739013319D1D5F8B1
:101F6000A030C3B15A1E1A4015D15B08D1B2104639
:101F700002F10102F9D185F81709084BB5F8A42040
:101F8000286802F0C0FB0446204603B030BD0C2494
:101F9000FAE70D24F8E70724F6E700BF3D29000023
:101FA00013B5044601A9803005F08FF828B90199CE
:101FB000012204F1B80000F0CDFE02B010BD13B54F
:101FC000044601A9803005F080F828B9024601993D
:101FD00004F1B80000F0BEFE02B010BDD0F89C10B5
:101FE000503005F027B910B500F150040421204607
:101FF00005F020F928B920460321BDE8104005F07E
:1020000019B910BD0321503005F014B9002150302A
:1020100005F010B910B500F150040521204605F077
:1020200009F9D0B90C21204605F004F9A8B9182106
:10203000204605F0FFF880B92221204605F0FAF885
:1020400058B940F20121204605F0F4F828B920469D
:102050004021BDE8104005F0EDB810BD10B50446B4
:1020600002F01AFB014604F15000BDE8104005F0F3
:102070001EB9006D012104F00ABF006D002104F0BB
:1020800006BF006D042104F002BF0C20704713B599
:1020900004466946006802F0AEFB206D08226946DE
:1020A00004F008FF02B010BD0221503005F098B9CD
:1020B00090F8C810006D04F0EABE000073B5044645
:1020C0000E4680300DF1070104F07DFF80BB9DF8C6
:1020D0000730022B23D002D9DA1E012A21D884F836
:1020E000C830002384F8D0300C220123314620462A
:1020F000FFF70AFC94F8C830042B054608D090B9C5
:10210000201D04F0C3FDC4F8CC00012384F89830EE
:1021100015B184F8D0600025284602B070BD0123B7
:10212000DDE70323DBE7074B1B68C4F8CC30ECE7A3
:10213000FFF750FA314602462046FFF7CBFB054633
:10214000EAE700BFEC0C01000C2A10B51C4603D0D6
:10215000712A06D0002010BDFFF7B0FF20700120CB
:10216000F9E700F03DFDF9E7F0B585B004460D460E
:1021700002A81146002716468DF8077000F068FA8D
:10218000DDE9023000F0010273B96AB90DF107030D
:10219000324629462046FFF7D7FFF8B90D222946D7
:1021A0002046FFF793FB17E0411084F8147904EB05
:1021B00060000AB16258D358984701228DF8070091
:1021C00084F8142918B1FFF705FA0246E7E7334609
:1021D00029462046FFF71CFB8DF807009DF80700F5
:1021E00005B0F0BD73B5002304460D46803001A94B
:1021F0001646019304F069FF024640B1FFF7EAF981
:10220000294602462046FFF761FB024604E0032E02
:1022100015D004D8022E0CD0104602B070BD331F6A
:10222000012BF9D8019A334629462046FFF79CFC3A
:10223000EBE7019B29462046FFF7EAFAE5E7019A1A
:1022400029462046FFF790FFDFE737B504460D46E5
:10225000803001A904F039FF80B9019A012A0FD01A
:1022600008D9931E032B10D9052229462046FFF7D3
:102270002DFB03E029462046FFF7D5FC03B030BD17
:1022800029462046FFF7D4FCF8E729462046FFF709
:10229000A9FFF3E730B5012385B080F8143904466F
:1022A0000025803001908DF80F5004F081FE04234A
:1022B000019884F8C83084F898500DF10F0104F0AB
:1022C00082FE90B99DF90F309DF80F10AB420CDAE9
:1022D000D4F8203911F0300F03F10103C4F820398C
:1022E00008D006222046FFF7F5FA002384F81439B7
:1022F00005B030BD2046FFF7A8FF38B19DF80F109C
:10230000FFF768F902462046FFF7E0FA94F8D32871
:1023100094F8D2389A4202D02046FFF72EFB9DF85F
:102320000F3094F8D12803F00F0332B19A421EBF48
:10233000D4F824290132C4F824290F2B14BF013307
:10234000012384F8D138D0E710B50446006801F0C5
:10235000C1FAC1B2206DBDE8104004F098BD10B5BF
:102360000446006801F060FDC1B2206DBDE8104078
:1023700004F08DBD10B50446006802F02BFA01464A
:10238000B0B10A280CD84FF4FA60414301F55C2142
:1023900001F5346104F15000BDE8104004F0FDBEC9
:1023A000192807D8044841F2883303FB0101F1E7FB
:1023B0000249EFE70021EDE7B0DB2300CC3F0D0041
:1023C00013B504460DF10701006801F0FBFA30B9BE
:1023D0009DF80710206D04F05AFD02B010BDFFF704
:1023E000F9F8014604F1500004F0FAFFF5E713B5DF
:1023F000002304460DF1070180308DF8073004F00A
:1024000004FE20B99DF90710206801F0EFFA02B030
:1024100010BD13B504460DF10701006801F0C8FABC
:1024200030B99DF80710206D04F031FD02B010BDE9
:10243000FFF7D0F8014604F1500004F0D1FFF5E7B2
:1024400013B5002304460DF1070180308DF80730E5
:1024500004F0DBFD20B99DF90710206801F078FD3C
:1024600002B010BD13B504460DF10701006801F07C
:10247000DBFA30B99DF80710206D04F008FD02B0BA
:1024800010BDFFF7A7F8014604F1500004F0A8FFC3
:10249000F5E713B5002304460DF1070180308DF8F0
:1024A000073004F0B2FD20B99DF90710206801F053
:1024B000C5FA02B010BD37B500F1800504460DF134
:1024C0000601284604F07FFD60B90DF1070128469A
:1024D00004F09BFD30B99DF907209DF80610206897
:1024E00001F048FD03B030BD13B504460DF10601FF
:1024F00054F8500B01F056FD30B9BDF806102046D7
:1025000004F03CFE02B010BDFFF764F8014620461F
:1025100004F066FFF6E713B504460DF106018030BE
:1025200004F07FFD20B9BDF80610206801F046FDDB
:1025300002B010BDFEE7FEE710B5044602F05DF9FB
:10254000FFF75CF90146206DBDE8104004F09FBC28
:10255000F7B5002300220546CDE9002300F0F5FE83
:102560006946044605F1800004F087FD70B9DDE995
:10257000006723460024A74208BF9E4208D3F21AF0
:1025800067EB0403C5F83029C5F8343903B0F0BD52
:102590000720FBE700F51363D3E90023503004F074
:1025A00017BE10B50446006803F0B8F9014620468E
:1025B000BDE81040FFF754BC10B50446006803F0B6
:1025C000B1F901462046BDE81040FFF749BC0000C4
:1025D0001346074A10B4146834B10A46014620462F
:1025E0005DF8044BFFF7CCB80D205DF8044B704745
:1025F00068140020F0B5013A044600260C20B242CF
:102600000AD995196D0800FB05F7CF599F4201D2F1
:102610006E1CF4E72A46F2E700FB06F288188A5897
:1026200093420BBFD0E901010023C4E90001C4E9D2
:1026300000332046F0BD000010B50B4604460349A8
:102640002922FFF7D7FF204610BD00BF4007010039
:1026500010B50B46044603491622FFF7CBFF204670
:1026600010BD00BF2C09010010B50B4604460349FC
:102670000322FFF7BFFF204610BD00BF340A010050
:1026800010B50B46044603490322FFF7B3FF20466B
:1026900010BD00BF580A01000621503004F0CABD29
:1026A000F8B50646174600F150050C4649B142B947
:1026B0008A880968284604F0E8FD002875D00120C2
:1026C000F8BD0021284604F059FD0028F7D1002C60
:1026D0006BD12146306DC9B204F0D9FB0028EED190
:1026E000306D802104F0D3FB0028E8D1002C5FD0AE
:1026F000E37D13F0010F0CBF002110219B0701D5D2
:1027000041F02001284604F039FD0028D7D12846A1
:1027100004F0E7FD01460028D1D104B1A179306D64
:1027200004F0B5FB01460028C9D104B1A17D306D8C
:1027300004F0ADFB0028C2D1002C3BD0D4E9022329
:10274000284604F045FD0028B9D1284604F0E8FDEC
:102750000028B4D1284604F0C4FD0028AFD1394682
:10276000284604F067FD0028A9D1284604F0D8FDCA
:102770000028A4D1284604F0B4FD014600289ED1CB
:1027800004B1217D306D04F082FB002897D1A4B103
:102790002169284604F001FD002890D1284604F064
:1027A000BFFD003818BF01208AE794F9151091E7A2
:1027B0002146A7E700220023C2E72146E9E7F8B552
:1027C00000F1500704460D4616467123062280216B
:1027D000384604F0E7FD50B9324629462046FFF757
:1027E0005FFF20B93846BDE8F84004F0BEBDF8BD33
:1027F000014B1868FFF7E3BF681400202DE9F34789
:102800000D4690F81619044616461F46002939D081
:1028100041F080016AB3136893F800A0CAF3001A6C
:1028200095F81A90002304F1500884F8163906220E
:10283000404609F0010904F0B5FD18BB3846FEF723
:10284000C9FE0146404604F0F5FCD8B9206D51465A
:1028500004F01DFBB0B9206D494604F018FB88B99F
:102860004FB12B681B781B070FD4404604F07DFD49
:1028700008E09246D4E73A4631462046FFF710FF7B
:102880000028EED002B0BDE8F087B9F1000FECD01F
:102890000DF10301284602F050FB0028F2D101A9F6
:1028A000284602F021FB0028ECD19DF80310206D92
:1028B00004F0EDFA0028E5D10199404604F06DFCE2
:1028C0000028D2D0DEE7000001480068FFF796BF7D
:1028D00068140020F8B5FF23054690F9177980F8B1
:1028E0001739044655F8500B0E4601F001FF392305
:1028F00006228021284604F055FDF0B9206DF9B27A
:1029000004F0C5FAC8B9206DF1B204F0C0FAA0B95C
:10291000284604F02AFD80B980213023062228466B
:1029200004F040FD014640B9206D04F0B0FA20B932
:102930002846BDE8F84004F018BDF8BD014B186802
:10294000FFF7C8BF6814002010B5044654F8500BB8
:1029500001F0D6FE01462046BDE8104004F06ABCF6
:1029600090F81819006D04F092BA10B5044654F8A6
:10297000500B01F02DFF02460B462046BDE81040EB
:1029800004F026BC10B500F618110446803004F09F
:102990002AFB30B994F818192068BDE8104001F0FE
:1029A000B5BE10BD73B50446006801F0F3FE0546E0
:1029B000B8B904F18006B4F88830B4F886209B1AC0
:1029C0009BB2012B0DD90DF10601304604F029FB15
:1029D00030B9BDF80610206801F0A4FE0028EAD046
:1029E0000546284602B070BD73B50446006801F084
:1029F000DDFE0546B0B904F18006B4F88830B4F8BD
:102A000086209B1A9BB2072B0CD9082201A93046BD
:102A100004F072FB28B90199206801F08DFE0028AE
:102A2000EBD00546284602B070BD13B504460DF143
:102A30000601803004F0F5FA20B9BDF806102068D0
:102A400001F08CFE02B010BD13B50822044601A9A6
:102A5000803004F051FB18B90199206801F088FE1C
:102A600002B010BD13B504460DF10601803004F02C
:102A7000D8FA20B9BDF80610206801F053FE02B064
:102A800010BD13B500230446082201A9803001932C
:102A900004F032FB18B90199206801F04DFE02B034
:102AA00010BD000013B500230DF10701044680306E
:102AB0008DF8073004F097FA014630B99DF80730D9
:102AC00020682BB901F0ECFD0146084602B010BDAC
:102AD0000049F7E7F127000013B504460DF10601A0
:102AE000803004F09EFA20B9BDF80610206801F08D
:102AF000DFFD02B010BD7FB500F180060C460DF180
:102B00000A0203A9304604F010FB0546002862D1F2
:102B1000BDF80A207F2A61D82546039955F8060B8F
:102B2000A2800CF061FB2946304604F04CFA0546C1
:102B3000002850D140F604732383A37E23F01703AB
:102B400043F00403C4E90400A37604F118013046FD
:102B500004F039FA00283ED104F11901304604F09E
:102B600032FAC0BB0DF10601304604F03CFA90BBCE
:102B700002A9304604F037FA68BB0DF10701304670
:102B800004F031FA38BB0DF10901304604F02BFA9C
:102B900008BB04F11001304604F057FAD8B904F12B
:102BA0001401304604F051FAA8B99DF807209DF8A9
:102BB000083043EA42039DF8062043EA82039DF869
:102BC000092043EA0213A27E03F0170322F0170242
:102BD0001343A3760546284604B070BD0625FAE7E0
:102BE00038B5044600680D4601F05DFDE8B1206887
:102BF00001F081FD0146D0B12046FFF77CFF03467E
:102C000048B905F00F0384F816390A49206801F025
:102C100074FD034668B11846FEF7DCFC29460246FF
:102C20002046BDE83840FEF755BE0D23F3E70323E9
:102C3000F1E738BDC928000030B500F1800487B045
:102C4000054602A9204604F0BEF920B99DF80830D7
:102C5000082B02D0072007B030BD0DF10901204636
:102C600004F0B1F90028F6D10DF10A0203A92046BB
:102C700004F05BFA0028EED1BDF80A30102BE9D140
:102C80000DF10A0204A9204604F04FFA0028E2D10F
:102C9000BDF80A30102BDDD10DF10A0205A920463E
:102CA00004F043FA0028D6D1BDF80A30102BD1D158
:102CB000059B0193049B00939DF80920039B9DF8BD
:102CC0000810286801F07EFDC5E713B5044601A988
:102CD000803004F0BAF918B90199206801F075FD47
:102CE00002B010BD1F20704730B5194C0023256875
:102CF0008D4225D16568954222D1D0E90225C3F1E4
:102D0000200405FA04F4A3F12001DA40224325FA55
:102D100001F10A4312F0010FC3F12004A3F12002D4
:102D20000DD1012101FA02F221FA04F4224301FA41
:102D300003F3D0E900140B432243C0E9003230BD55
:102D40000133DBB21F2B04F10C04D0D1F7E700BF35
:102D50007C0A01002DE9F04F0023214C93461F46C9
:102D6000012694F814C05D1CBCF1000F26D0E26867
:102D70008A4223D11F3BC5F1200E26FA0EFE06FA29
:102D800003F343EA0E0306FA05FAD0E902796FEA83
:102D90000A086FEA030EBBF1000F18D04AEA0707D2
:102DA00043EA0903C0E90273D0E9003703EA0803E4
:102DB00007EA0E07C0E9003731B967461E2D2B46DA
:102DC00004F10C04CDD14FB10020BDE8F08F08EA2A
:102DD00007070EEA0903C0E90273EDE70720F4E7ED
:102DE0007C0A010030B5104B00220132D2B21F2AFA
:102DF00003F10C0301D1002015E01C7A002CF4D063
:102E00001C688C42F1D1D0E90235C2F12004A2F154
:102E1000200123FA02F005FA04F4204325FA01F117
:102E2000084300F0010030BD7C0A010000F14020A1
:102E300000F50030002382B0036003680193019B1A
:102E400002B0704708B5094B020103EB0010084BB4
:102E50004168C3F84813C168C3F808130089FFF735
:102E6000E5FF044B0021995408BD00BFF00B0100A1
:102E70000040024080140020224B37B51946012043
:102E8000D3E84F2FD2B28DF807209DF8072062B10A
:102E9000BFF32F8F1C4B1A681C4B12B91A68D2074C
:102EA0002DD518680230400827E0C3E8420F002AF9
:102EB000E6D1174B0222C3F80823BFF35F8F03F557
:102EC0008273124A1B684BB1136801331360BFF35E
:102ED0005F8F4FF48270FFF7A9FF012310680C4C3D
:102EE000022501304008C4F80453BFF35F8F00246B
:102EF0000C7013B113680133136003B030BD186850
:102F0000D1E700BF6D14002004410240701400207E
:102F1000004002402DE9F04106460C46FFF7ACFFA9
:102F20000546BFF35F8FDFF82080D8F80475BFF344
:102F30005F8FFFF7A1FF3060854218BFD8F8047596
:102F40002760BDE8F08100BF004002402DE9F84352
:102F50004C4CDFF840E1DDE9083C04EB02188946FF
:102F60009842D8F80C10D8F80480CEF808134FEA2D
:102F70000215CEF844839E4672D9A0EB0308B8F13F
:102F8000000F6DDA00334CF1FF3CC84618EB000827
:102F90004FF000034FF0000949F1000913EB080658
:102FA0004CEB090732B94FF47A7303FB07F1A6FB28
:102FB00003670F44344B4FEA563848EAC748A8FB2A
:102FC0000389790B03FB01994FEA18704FEA1978CE
:102FD00040EA091043F609534FEA482C4CEAD05C0A
:102FE0004FEA402EA0FB030103FB0811B6EB0008DB
:102FF00067EB0106254840F2314101FB08F100FB77
:103000000616A8FB0078B0444FF0FF36BE1947F60D
:10301000FF7048EB00004FEAD03818EB0E084FF075
:10302000000141EB0C0C28F07F4640F2FF10A8FB9A
:10303000038903FB0C9918EB000049EB0101D2B1A5
:10304000400A40EAC150490A114B124A2B44C3E9D5
:103050000201635903F5A87342F82360BDE8F883C1
:10306000704592D2AEEB000EBEF1000F8DDA003348
:103070004CF1010C89E74FF4FA2200230BF0F2FE29
:10308000E2E700BFF00B0100D07B63087B2DE8BDB9
:10309000801400200040024073B5064601A968462E
:1030A000FFF738FF019843F6095140F2FF12002361
:1030B000E1FB0023540A44EAC3545D0A009A084B1A
:1030C000E3FB024546B9204629464FF47A720023B5
:1030D0000BF0C8FE04460D462046294602B070BDDE
:1030E0000080841EF8B51A4D05EB00130446060156
:1030F00018890F46FFF79AFE2046FFF7CDFF0246DC
:103100000B463FB913493144D1E902018B4208BF54
:1031100082421CD33544104B6A68C3F84823022C02
:10312000EA68C3F808230AD0032C0CD0094A01230B
:1031300093550A4A1370BDE8F84000F0A2BFBDE8FD
:10314000F84005F04BBABDE8F84004F057BDF8BDB3
:10315000F00B010080140020004002406C1400209D
:103160002DE9FF410746884602A803A91646FFF746
:10317000D1FE039843F6095140F2FF120023E1FB10
:103180000023540A44EAC3545D0A029A294BE3FB24
:10319000024546B9204629464FF47A7200230BF0C7
:1031A00061FE04460D463246CDE9004541463846AB
:1031B000FFF7CCFE204B039AD3F804359A4203D094
:1031C00003A902A8FFF7A6FE039B43F60950991C2A
:1031D00040F2FF120023E0FB0123540A44EAC354E7
:1031E0005D0A029A134BE3FB024546B92046294685
:1031F0004FF47A7200230BF035FE04460D460F4A59
:1032000002EB0612D2E902239D4208BF94424FEA24
:10321000061107D301213046FFF764FF40BF04B019
:10322000BDE8F081064B0B44DA68034BC3F8042376
:10323000F5E700BF0080841E00400240801400209B
:10324000F00B010038B52A48402200210BF0F4FFB2
:10325000284B00201860284B1870284B00240025AC
:10326000C3E9004508F0EEF808F02AF90028FBD081
:10327000234BC02283F824231022C3F884215A60F0
:10328000204A0023C2F808354FF48270FFF7CEFDC4
:103290000223C2F844334FF4A070C2F80433FFF79E
:1032A000C5FD4FF48033C2F848334FF4A270C2F822
:1032B0000833FFF7BBFD4FF40033C2F848334FF437
:1032C000A470C2F80833FFF7B1FD4FF48023C2F8B1
:1032D00048334FF4A670C2F80833FFF7A7FD4FF448
:1032E0000023C2F84833C2F808330123136038BD05
:1032F00080140020701400206D1400207814002029
:1033000000E100E0004002402DE9F04100260B4FB3
:103310000446B0460A4D87F800802B7C1BB120463E
:103320002E7401F011FC2B781BB120462E7001F099
:10333000D3FB3B78002BEDD1BDE8F0816C1400206D
:10334000801400200120FFF7A7BE08B5FFF7FAFFA1
:103350004FF47A7200230BF085FD08BD0846114634
:103360000022FFF7FDBE0020FFF76CBD08B5FFF798
:10337000E9FF08BD084611460122FFF7F1BE012012
:10338000FFF760BD70477047044B4FF48022C3F8CD
:103390000823BFF34F8FBFF36F8F70470040024089
:1033A000024B4FF48022C3F80423704700400240D0
:1033B000FFF7DCBF1F2070470222FFF7D1BE0220BB
:1033C000FFF740BD2DE9FF48154F164E40F2FF14A0
:1033D000002502A903A8FFF79DFD029A43F60953B1
:1033E00020462946E3FB0201400A039B40EAC15004
:1033F000490AE7FB03018C4683460322CDE900BC62
:103400003E215846FFF7A2FD4FF40023C6F80433CF
:10341000D6F80435029A9A42DBD104B0BDE8F088B0
:103420000080841E0040024037B5044603200D464C
:10343000FFF732FE0322CDE9000129462046FFF7BF
:1034400085FD034B4FF40022C3F8042303B030BDC5
:10345000004002400320FFF7F5BC000008B5224BF6
:1034600001221A604FF4A070FFF7E0FC1F4A4FF4EE
:103470008033C2F848334FF4A270C2F80833FFF724
:10348000D5FC4FF40033C2F848334FF4A470C2F8AF
:103490000833FFF7CBFC4FF48023C2F848334FF4D6
:1034A000A670C2F80833FFF7C1FC4FF40023C2F83E
:1034B0004833C2F808330223C2F808334FF482704D
:1034C000C2F84833FFF7B2FCFFF7C4FF084B1022E5
:1034D000C3F88420C3F88421002283F82423BDE8A4
:1034E000084007F0D9BF00BF04400240004002403E
:1034F00000E100E0004870474C410240014B986BEE
:10350000704700BF80140020114B1B6870B52BB1B1
:10351000104B0222C3F80823FFF7AEFC0E4D0D4EF0
:103520000024D6F80423EB681A420AD02B8903F151
:10353000402303F500331B681BB10021E0B2FFF705
:10354000D1FD0134042C05F11005EAD170BD00BF96
:103550000441024000400240F00B0100FFF7F2BEC0
:10356000704770474FF08043044AD3F8001411604D
:103570004FF0FF32C3F80024704700BFC014002092
:103580007047000008B500F032FF0A4B187018B100
:10359000094B04221A6008BDBFF34F8F0749084B3F
:1035A000CA6802F4E0621343CB60BFF34F8F00BFE1
:1035B000FDE700BFAC4A0020C014002000ED00E091
:1035C0000400FA050B4B1B68D9070BD49A070BD4E0
:1035D00059070BD41A070BD413F4F81F14BF062095
:1035E0000020704701207047082070470220704774
:1035F00003207047C014002070470000012303FA25
:1036000000F0084A82B0C04352E8003F0193019B9A
:1036100003400193019B42E800310029F4D102B03C
:10362000704700BF38150020074A82B052E8003FBB
:103630000193019B23F001030193019B42E80031B8
:103640000029F3D102B07047381500200123094A40
:1036500082B003FA00F052E8003F0193019B03435C
:103660000193019B42E800310029F4D102B000F03F
:1036700008BD00BF38150020F4230B70CE234B701B
:1036800036238B704FF0805382B01A6E5B6EC1F898
:103690000330CA7102B0704707B501A8ADF8041035
:1036A00004F036FB03B05DF804FB000010B40748DB
:1036B000CB1D1C7800F8014B8B4203F1FF33F8D18E
:1036C0005DF8044B084604F025BB00BF0815002038
:1036D00007B501A8ADF8041004F01EFB03B05DF8B7
:1036E00004FB000008B5134B01221A70124B7F2215
:1036F0001A70124B124A1A60124ADA60124A0023F8
:103700001370124A184659010133102B8850FAD110
:103710000F4A00237F210133102B02F8011BFAD13D
:103720000C48202200210BF087FDBDE8084004F082
:1037300000BB00BF01150020001500205817002015
:1037400089170020781700204C1500205015002004
:1037500018150020C814002008B504F02FFB04F051
:103760000DFB024B00221A6008BD00BF3815002077
:1037700008B50C4B1B7883B904F014FB04280ED059
:1037800004D8022814BF0220012008BD0638C0B2A8
:10379000022834BF03200220F7E70020F5E70320CA
:1037A000F3E700BF01150020024B187880F00100FC
:1037B000704700BF01150020034B1A7812B100209A
:1037C000187070470D2070470115002010B5084C87
:1037D00022784AB9FFF7CCFF012803D0054B1B68BC
:1037E000DB0703D501232370002010BD0D20FCE76B
:1037F000011500203815002008B504F0E2FA28B9B8
:1038000000F0D1FDFFF710FF002008BDFFF70CFF0F
:103810000020FFF71BFFF7E70B68F7B58A8803F86E
:10382000012C07460C4604F0BDFA022801D100F035
:10383000B9FD204600F096FC90B1204600F097FCC0
:1038400070B1A37E9B070BD41E4B2046197800F065
:10385000ACFC1D4B196820464A1C1A6000F0A7FCFE
:103860002669A079D6B1256800903346681E626942
:10387000012104F0C0FA0028064612BF00250D25DC
:103880000126FFF7D1FE2146384602F02CF816B982
:103890000220FFF7DBFE284603B0F0BD04F01EFA5D
:1038A000A57E206815F0040505D00138354604F0E2
:1038B000E1FA0126E5E72946013804F090FA0646C8
:1038C000DFE700BF101500201415002000487047E6
:1038D0005817002008B5064B4FF4206043F0010351
:1038E000984704F096FABDE8084004F094BA00BF87
:1038F000300C0100FB20704704F09EBA084604F02B
:103900009DBA084604F09CBA07B5ADF8041001A8AA
:10391000002104F097FA00280CBF0320002003B018
:103920005DF804FB08B50846012104F08BFA002875
:103930000CBF0320002008BD07B5ADF8041001A896
:10394000002104F088FA00280CBF0A20002003B0F0
:103950005DF804FB08B50846012104F07CFA002854
:103960000CBF0A20002008BD002004F077BA012017
:1039700004F074BA4FF47A7310B55A430A4C0B4BE7
:10398000226008461970FFF74FFE04F0A7F920687F
:1039900004F039FA20B10520FFF730FE002010BDF9
:1039A0000520FFF753FEF9E704150020031500205A
:1039B00010B50C4621B104F0A4F92070002010BD10
:1039C0000720FCE713B50C4661B101A804F050FADA
:1039D000054A9DF8053012785E3B9B1A2370002043
:1039E00002B010BD0720FBE71115002013B50D4BE9
:1039F0001B78194448B210F15E0F10DB0024ADF8BB
:103A000005408DF807408DF8044004F08BF98DF8DF
:103A1000050001A804F025FA204602B010BD0720D9
:103A2000FBE700BF1115002021B1034B1B780B7081
:103A3000002070470720704711150020F7B50B4C88
:103A4000054601A80E4694F9007004F011FA9DF89D
:103A50000530217826705E3B591A49B22846FFF797
:103A6000C5FF00B1277003B0F0BD00BF11150020E5
:103A7000F8B50026404D044637462B684BB120462A
:103A80000022294601F028FF28682F60013804F041
:103A9000BEF90136102E05F12005EED1374D2B6809
:103AA0009F0714D5364E0120FFF7A8FD326835492F
:103AB000002A20464FF0000318BF324601F01AFFDB
:103AC000306820B1013804F0A2F9002333602B687C
:103AD0005E0708D50220FFF791FD2A490F23002237
:103AE000204601F007FF2B68180708D50320FFF7D1
:103AF00085FD24490E230022204601F0FBFE2B68A1
:103B0000D90608D50420FFF779FD1F4B00211A784C
:103B1000204601F0E1FE2B685A0608D50620FFF783
:103B20006DFD1A4B204693F9001001F0EFFE2C6852
:103B300014F0010408D004F044F90446A0B900F0E0
:103B400032FC2046FFF75AFD2B689B0611D5104B1F
:103B5000187804F0C3F80F4B186804F054F928B92A
:103B6000BDE8F84000F08DBA0124EDE70520FFF72D
:103B700045FD002CF4D1F8BD50150020381500206B
:103B8000C8140020581700204C15002002150020F2
:103B900003150020041500202DE9F84FDFF8D8B0F8
:103BA0001F460446894692460023D8465D0155F8D3
:103BB0000B10002950D10BEB0506202230460BF0EC
:103BC0003BFB631C4BF805302378B38086F81590D7
:103BD00086F816A004F091F8B0716278DFF89C9036
:103BE00012F020023FD1454405F1100AEB7D62F34B
:103BF00000038AF80730FFF7B9FB21788046384682
:103C000004F093F80746FFF79DFB0246A8EB070078
:103C1000121A61F10003C5E90223002389F800307C
:103C20006378124C13F0200F10D0304600F090FA59
:103C300060B19AF80730227862F341038AF80730BE
:103C40000B4B1B682B610B4B1B782B7500232370D0
:103C5000BDE8F84F00F015BA0133102BA6D10023B0
:103C600001341C60FFDE99F80020BCE7EE14002050
:103C7000E8140020EC14002050150020ED14002062
:103C8000431E092B09D8DFE803F00516191C1C1C7C
:103C90001C051C1C0D4B12221A700D4A00231370B8
:103CA0000C4A0828137001D005280DD1074A0020BE
:103CB0001370FFF7CBBC054B1122EDE7034B162227
:103CC000EAE7024B0122E7E70420F2E74C15002067
:103CD000ED140020EE14002070B54278224B234EE4
:103CE000C2F3001119700021130788B00446317027
:103CF00033D51C2201A80BF09FFA631C0093684681
:103D00002378ADF8043000F043FA0446684600F02A
:103D10002EFA10B30CB3164B1B789C421FD05A1EC0
:103D200094421ED001339C4217D1124B124D134ABC
:103D300029681160124A02931470214601226846D4
:103D4000327000F032FA296868464B1C2B6000F094
:103D50002EFA0C49684600F0F9F908B070BD0A4B1C
:103D6000E4E70A4BE2E700BFED140020EE14002068
:103D7000101500202815002014150020E81400203C
:103D8000EC14002008150020F01400203C15002041
:103D90002DE9F047DDF820A0144C90461F460D4653
:103DA00029B92160BDE8F0470120FFF74FBCFFF7BC
:103DB000DDFAA946064619F8011B504603F0B5FF87
:103DC0008246FFF7BFFA0246A6EB0A00121A61F11B
:103DD0000003C4E90223C4F800902B78A38084F880
:103DE0001580A77503F089FFA071DBE7C8140020D8
:103DF000013906290AD8DFE801F00407070407049F
:103E000004000220FFF722BC0320FBE770470000FC
:103E100008B503F083FF034B1870BDE80840062087
:103E2000FFF714BC021500206FF06300704700001C
:103E300010B50A4C204600F095F970B1204600F00C
:103E400096F950B1A37EDB0607D4054BA36020464C
:103E50000449BDE8104000F079B910BD58170020A2
:103E6000F0140020081500207047704700F0C7BC10
:103E7000FFF774BBF8B50020DDE9066517461C4660
:103E800007F0A4FA0A4B1F7094E80F00094F0A4C80
:103E900087E80F0096E80F0084E80F0095E80F0010
:103EA000064C84E80F00BDE8F840002007F090BA07
:103EB000101500203C150020F014002028150020CB
:103EC00010B500200C4607F081FA034B00201C605F
:103ED000BDE8104007F07CBA14150020A0F10B03D8
:103EE0000F2B9DBF024BC01810F90B0C7F207047A1
:103EF0001815002008B5FFF7F1FF074B93F90030C4
:103F00007F2B04D09842A8BF184640B208BD7F2836
:103F100008BF0020FAE700BF0015002010B50846D2
:103F20000C4603F0DBFE03F03DFF022801D100F058
:103F300039FA2046FFF7DEFF03F0E1FE03F049FF08
:103F4000FFF772FB00280CBF0D20002010BD000001
:103F500010B50C4603F0D1FE7F2C07D0044B1C702B
:103F6000FFF7C8FF03F0CBFE002010BD0720FCE7E1
:103F700000150020A1F10B030F2B10B50C460DD836
:103F8000074B0B4403F80B2C03F0B7FEA04203D100
:103F9000FFF7B0FF03F0B3FE002000E0072010BDE4
:103FA0001815002021B1034B1B880B80002070479F
:103FB00007207047501700207047000008B5034BDA
:103FC00008461980FFF7F8FF002008BD50170020B1
:103FD00010B50C4C00F0E5F900F05EF8FFF7BCFB03
:103FE000FFF7CEFA22780AB9FFF7BBFA207800F083
:103FF000F8F900F079F9FFF731FABDE8104000F068
:10400000D5B900BFAC4A002010B5124C23780BB1D3
:10401000FFF7DEFF104B0122C3F8402507F0FAF945
:1040200000F0C2F9FFF70EF900F00AF923780BB996
:10403000FFF796FA207800F0CFF9FFF793FAFFF731
:1040400051FB00F01FF800F0ABF9FFF789FA0023ED
:10405000237010BDAC4A002000E00140014B1878ED
:10406000704700BFAC4A002010B50446FFF700FDC2
:1040700000F0BBF900F018F82046BDE81040FFF74B
:1040800043B97047034B00221A60A3F20453012284
:104090001A60704704C50040014B01225A60704706
:1040A00000C00040000000001F4B2DE9F7431F4CEB
:1040B000D3F8002125688AB10022C3F80021D3F883
:1040C00000210192019AD3F80825D3F8083592050A
:1040D00044BF6FEA83536FEA93532360FFF732F9CB
:1040E000134B1A680FF23809D9E90089861A5A6801
:1040F00061EB0207B94508BFB0453FBF0A4A012638
:104100001660C3E900012368AB4204D003B0BDE8E8
:10411000F04303F0FBBD03B0BDE8F083AFF30080D4
:1041200080C3C9010000000000C00040101800203A
:104130000818002070477047034B18680028B8BF64
:10414000033040F3870070471018002000F0ACBF28
:1041500008B500F0EEFD00F44050A0F500535842C1
:10416000584108BD03681878C0F3C000704707B510
:104170000DF1070100F0A8FE40B99DF80700A0F17D
:1041800008035842584103B05DF804FB0020FAE7E9
:1041900007B500230DF107018DF8073000F0CDFEC3
:1041A0009DF8070003B05DF804FB00F0DCBE00F0F2
:1041B000ABBE0000064B00221A6082B01B68019360
:1041C000019B044B0122C3F804231A6002B070471C
:1041D00000D1004000D00040144B1A6813B51AB348
:1041E000134AD2F80813C9071ED5002119601B68AD
:1041F0000193019BD2F808450E4B0F4A19681068CD
:10420000091A7F2906D81968481C186001F07F0137
:104210000A4844541B6812689B1A7F2B81BF044ACA
:104220000123C2F80833536002B010BD00D1004032
:1042300000D000409C18002098180020141800207E
:1042400070B58022234D244C244800210AF0F4FF4D
:10425000234900232B602360C02381F80D334FF4E2
:104260000053C1F880310B601E49D1F8040540F0BD
:104270000100C1F80405D1F8000220F00100C1F8E6
:104280000002FFF797FF2B46224611681868091AAB
:104290000329FAD911681868091A032917D90F4D8B
:1042A00004240020166819688E421DBF19684E1C30
:1042B00001F07F0100211CBF695C1E600002013C0F
:1042C00040EA0100EED1BDE870400AF0BDBF002019
:1042D000F9E700BF981800209C180020141800204F
:1042E00000E100E000D00040074A0123C2F8083393
:1042F0005360064B4FF40052C3F88020C3F880216E
:10430000002283F80D23704700D0004000E100E058
:104310002DE9F0471E4E01233370002836D00029C6
:1043200034D0DFF874801B4F0025C146D8F8004018
:104330003B68E41AE4B24B1B9C42C8BFDCB2F4B148
:10434000DFF858E000EB050C0022D9F800A03B682C
:104350009A451EBF3B6803F1010A03F07F0302F197
:1043600001021ABF1EF80330C7F800A000239442D0
:104370000CF8013BE9D8FFF71DFF2C44A5B28D4294
:10438000D4D3002000233370BDE8F0870720F9E77D
:1043900094180020981800209C1800201418002061
:1043A000704770477047704700F002B800F00EB8D1
:1043B00008B50121002006F0DBFF0028A2BF024B58
:1043C00001221A7008BD00BFA0180020014B002276
:1043D0001A707047A018002008B900F0B5B800F0B6
:1043E000E5B808B900F0CAB8704700F0E7B8012096
:1043F000704700000838062814D8DFE800F0060DE2
:1044000010131313040008F0D9BC074B00221A84C0
:10441000064B01221A757047044B0022FAE7034B42
:1044200001225A75704700BFA41800202C1B0020E1
:10443000FFF727BE07B50B4801AA01210AF002F9D0
:1044400068B9019840B1FEF780FF074B1B69C01A9D
:104450000A2894BF0020012003B05DF804FB00206F
:10446000FAE700BF380C01002C1B0020012910B511
:1044700014D0022907D081B90A4C012323760AF00F
:10448000AAF8A06009E0084908484FF400720AF051
:10449000A7F8FEF75AFF034B186110BD014BD97501
:1044A000FBE700BF2C1B00202C190020380C01005A
:1044B00010B5134C237B0BB1237DDBB2627B03F081
:1044C00001039A4206D063737BB107F011FE08B96D
:1044D00008F072FC637D8BB10023637507F008FE62
:1044E00060B1BDE8104008F06BBC07F00BFE10B1E6
:1044F00008F076FCEEE708F061FCEBE710BD00BFCA
:104500002C1B002038B50E4C236825466BB1FFF7F5
:1045100091FF50B1A28821680A480AF03BF818B907
:104520000123A3752060A08038BDEB7D002BFBD05C
:104530000023EB75AB75BDE83840FCF7E2BE00BF69
:104540002C1B0020380C010008B51C220021084853
:104550000AF072FE09F0ACFA064808F069FB09F0AF
:10456000DBFA054808F046FCBDE8084008F00CBC42
:104570002C1B00205C0C0100380C010008B507F072
:10458000C1FD58B108F02CFC08F000FF0028FBD159
:1045900008F0BCFCBDE8084008F0BEBB07F0A8FD71
:1045A0000028F5D008F00AFCF2E70000024B0022D8
:1045B0009A751A609A8070472C1B002038B508F055
:1045C000E5FE05460028FAD10B4CFFF771FF237E6C
:1045D00073B1A16821B1094889B2FCF790FEA560CA
:1045E000064907484FF4007209F0FAFF00B9207637
:1045F000BDE83840FFF786BF2C1B00202C19002097
:10460000380C0100024B01221A730020704700BFD2
:104610002C1B002010B5094CA37D0BB1E37D1BB111
:10462000FFF770FF002010BD08F0B0FE0028FBD19E
:10463000FFF73EFFFFF766FFEEE700BF2C1B0020F1
:1046400070B50E4CA37D06460D460BB1FFF7E2FF99
:10465000236873B9FFF7EEFE10B92660A58070BD20
:1046600007482A46314609F095FF012318B9A3757A
:10467000F5E70520F3E71846F1E700BF2C1B002003
:10468000380C010000F0DAB80120704700F0F3B8F0
:1046900000F0E4B800F0E4B800487047680C01008E
:1046A000143000F080BA8069003818BF01207047CC
:1046B000143000F0A4BA00000148FFF71DB900BF94
:1046C000481B002008B5836923B10348FFF716F99A
:1046D000002008BD0D20FCE7481B0020836913B1B2
:1046E0000248FFF789B80D20704700BF481B002023
:1046F000143000F08EBA806B7047143000F0A0BA0E
:10470000243000F0BBBD143000F0B4BA08B58369A2
:1047100023B10348FFF7F5F8002008BD0D20FCE7A2
:10472000481B0020836913B10248FFF7EDB80D2044
:10473000704700BF481B0020836907B553B1684626
:10474000012200F013FD04486946FFF7EBF803B0BF
:104750005DF804FB0D20FAE7481B0020836913B1C4
:104760000248FFF7E9B80D20704700BF481B002042
:10477000836907B553B16846012200F0F7FC04488D
:104780006946FFF7E7F803B05DF804FB0D20FAE790
:10479000481B002008B5836923B10348FFF7E4F8FC
:1047A000002008BD0D20FCE7481B002008B58369E8
:1047B00023B10348FFF7DBF8002008BD0D20FCE71C
:1047C000481B0020143000F071BA143000F0A7BA72
:1047D000FEF7C4BE007D7047143000F0FFB9C08AF8
:1047E0007047143000F0EDB92A307047143000F0F3
:1047F000FCB9008D7047FEF73FBF0120704700F005
:104800008FB810B50446FFF73FFF20B1201DBDE86B
:10481000104000F0B7B810BD38B500250446C0E917
:104820000155C560103000F04DF8214604F1140028
:1048300000F0A6F984F88C50204638BD10B5064C1F
:1048400094F88C302BB92046FFF7E6FF012384F85B
:104850008C30014810BD00BF481B0020FEF792BEFF
:1048600010B50446113000F0D3FF04F11400BDE888
:10487000104000F079B990F88C3010B504465BB167
:10488000002380F88C30243000F032FD04F1100059
:10489000BDE8104000F002B810BD0000034A1388C4
:1048A00003B9FEE7013B1380704700BFD81B00200F
:1048B00031B16FF00043994208BF01210160704798
:1048C0000121FBE737B50D4C23884FF6FF72934269
:1048D000054600D1FEE753B904210DEB0100FFF7B7
:1048E00017FD00B1FEE701990548FFF7E1FF2388B6
:1048F00028460133238003B030BD00BFD81B002001
:10490000DC1B0020026848F24E33A2FB032313EBAA
:10491000520244BF22F0004201320260104670474A
:10492000034B1B8803B9FEE70248FFF7EBBF00BF4C
:10493000D81B0020DC1B0020814210B5044600D8A3
:10494000FEE7FFF7EDFF091BB0FBF1F303FB1100DE
:10495000204410BD036823B9016004484960FCF796
:10496000ADBC5A684A60596001607047481B00201E
:104970004368014613B90248FFF7ECBF704700BF18
:104980004C1B002038B500250468056054B16068F0
:1049900084421CBF436863600368456008BF00240D
:1049A0009847F3E738BD4368496810B59C1A8A1ADE
:1049B000D20FB2EBD47F08BF5B1A4FEAD47008BFA6
:1049C000D80F10BD70B505680C4625B9BDE870401C
:1049D0004B68084818478B6898476A68831A002B09
:1049E00001462368B8BF121ABDE870400148A8BF4D
:1049F00000221847481B002038B50C461146A26813
:104A00009442034606D00568AC4204D10260FFF729
:104A1000D9FFA46038BD2A460021002AF9D094426B
:104A200008D011469268F8E78B68002BF1D09B689C
:104A30008B60EEE70029F7D1002DEAD0AA681A6052
:104A4000E7E72DE9F047936805460C461646984778
:104A50003246814621462846FFF7CEFFD5F800A012
:104A60004FF00008574647B14A4639462046FFF7FF
:104A70009AFF10B9B846BF68F5E7B8F1000F08D142
:104A8000C4F808A031462C602846BDE8F047FFF77F
:104A900099BFD8F80830A360C8F80840BDE8F0878F
:104AA00070B5066804460D467EB18B6898477368FA
:104AB000C01A002809DB20462A463146FFF79CFF32
:104AC00033683046BDE87040184729462046BDE8A7
:104AD0007040FFF777BF000010B50446FFF7D4FD24
:104AE00030B104F108000349BDE81040FFF7D8BF1A
:104AF00010BD00BFCC0C01004160024A01460248D3
:104B0000FFF79FBFC00C0100541B0020002A00DAF1
:104B1000FEE71144FFF7F0BF13B504460191FEF71D
:104B200025FC019A0146204602B0BDE81040FFF77F
:104B3000EDBF00000146024A0248FFF75DBF00BF1B
:104B4000C00C0100541B002010B50446FFF79CFD6B
:104B500030B104F10C000349BDE81040FFF7A0BFDD
:104B600010BD00BFC00C01000023C0E90233436048
:104B70000B2303704FF6FF734380103000F01FBB10
:104B800010B50B2303704FF6FF7343800023C0E979
:104B900001330446C360103000F03CFB2046FFF7B1
:104BA000E3FF204610BD38B504460D46103019B15C
:104BB00000F088FB10B138BD00F09AFB6560002062
:104BC000F9E738B5436804460D462BB1103000F0C4
:104BD00059FB6580002038BD0D20FCE7436813B108
:104BE0000170002070470D20704708B5436823B15D
:104BF000103000F053FB002008BD0D20FCE708B585
:104C0000436823B1103000F043FB002008BD0D20A5
:104C1000FCE743681BB110F8101B00F07DBB0D20B2
:104C20007047000010B444682CB122B923460348F1
:104C30005DF8044B18475DF8044B7047481B002093
:104C400038B5436804460D462BB1103000F0E4FC43
:104C500000B9A56038BD0D20FCE7000038B58568B7
:104C600004461DB10248A8470023A36038BD00BF19
:104C7000481B002038B51D46436804462BB1103050
:104C800000F0AEFB00B9E56038BD0D20FCE7000088
:104C9000436810B504462BB1C3681BB1024898475E
:104CA0000023E36010BD00BF481B00202DE9F04346
:104CB0008FB004460D4616460021102202A806AF0A
:104CC00099460DF128080AF0B7FA1022002138465B
:104CD0000AF0B2FA1022002140460AF0ADFA6368E9
:104CE000DBB10022494602A800F057FA16990022CB
:104CF000384600F052FA17990022404600F04DFA6B
:104D000004F11000CDE9007802AB3246294600F0EC
:104D1000EFFB00200FB0BDE8F0830D20FAE708B5E7
:104D2000436823B1103000F04DFD002008BD0D2078
:104D3000FCE7036858781B7843EA0020704700F4CA
:104D40004053B3F5005F1ED120F44E5323F03F03D0
:104D500048F2400293421CD00CD8B3F5446F18D0EF
:104D600005D8B3B1B3F5046018BF01207047B3F59F
:104D70000040F9E74CF6404293420AD000F44C4020
:104D8000B0F54040F0E710F4406F14BF0120002060
:104D900070470020704710F440430DD043060BD4F9
:104DA00000F44053B3F5005F08D100F44C40B0F577
:104DB0004C4018BF01207047002070470120704709
:104DC000102804D0182814BF0020082070470420A1
:104DD000704700F00700013806280BD8DFE800F024
:104DE0000406080A040608000420704708207047DB
:104DF0001020704700207047430708D000F01803C8
:104E0000083BDBB2102B04D8034AD05C7047FF206C
:104E100070470520704700BFD80C010008B5014657
:104E2000FFF78DFF002801F440630CBF0322052229
:104E3000B3F5006F06D0B3F5406F17D023B1FF2252
:104E4000104608BD0232D2B20846FFF7A4FF08B1EF
:104E50000232D2B201F44041B1F5004F08D0B1F5B1
:104E6000404F08D0002918BFFF22E9E70832EAE7DF
:104E70000232D2B2E4E70832FBE708B58388042B9C
:104E800005D9FFF756FFBDE80840FFF7C7BFFF2071
:104E900008BD8288022A05D903681B781B0701D543
:104EA000FFF7EBBFFF20704738B505460C46FFF70C
:104EB000F0FFFF281FBF2B681B5C03F00703237064
:104EC00014BF0020062038BD38B505460C46FFF754
:104ED000E0FFFF281FBF2B681B5C03F01803237043
:104EE00014BF0020062038BD38B505460C46FFF734
:104EF000D0FFFF281FBF431C2A68DBB200201ABF67
:104F0000D3582360062038BD38B505460C46FFF758
:104F1000C0FFFF2800D1FEE72A68431CD9B252FA2D
:104F200083F35454220A5A70220C240E9A70DC70B7
:104F3000AB7E43F00103AB7638BD38B505460C4671
:104F4000FFF7A7FFFF2802460BD02B68185C00F084
:104F50001800FFF735FF1344034400205B792370EA
:104F600038BD0620FCE738B505460C46FFF791FF33
:104F7000FF28024600D1FEE72B68185C00F01800FD
:104F8000FFF71EFF134403445C7138BD10B504469F
:104F9000FFF77FFFFF2806D02368185CFFF719FF93
:104FA0000230C0B210BD0220FCE710B50446FFF786
:104FB00064FFFF28014610D023681A7812070CD529
:104FC000A488A0420BDA185CFFF716FFFF2808D070
:104FD0000844C1B28C42B8BFFF21084610BDFF2172
:104FE000FBE70146F9E7F8B50646FFF7DEFF84B2B6
:104FF000FF2C2DD03046FFF79CFE830505461CD5BF
:105000003046FFF7C3FF3768B188A21C93B210FA8D
:1050100082F28A4207EB04061CDC3A5D02F07F0252
:1050200013449CB210FA83F3994213DB3288C2F323
:10503000C7127F2A01D09942E7D105F44053B3F556
:10504000005F05D005F00705032D01D10134A4B29E
:10505000E0B2F8BDFF24FBE710B50446FFF7C3FF3D
:10506000FF2816BF23680020C01810BD10B50446E5
:10507000FFF7F2FF2368C01AC0B210BD38B505466D
:10508000FFF7F4FF04462846FFF780FF0444A88892
:10509000001B80B238BD10B50446FFF777FFA38828
:1050A000181A2368184410BDF0B50446E5B0002373
:1050B0000AA805930D4600F0ECFD23681B781B073A
:1050C0004FD50DF113012046FFF7EEFE002848D121
:1050D00005A92046FFF708FF0646002841D106AF84
:1050E0009DF8132005993B46284600F0C4FDA168B1
:1050F0000AA800F01FFC2046FFF748FF054620469F
:10510000FFF7B4FF03902046FFF7B8FF023D0D23E1
:1051100002460399CDE900730AA8EBB200F016FC31
:105120002046FFF7A3FF216802460AA800F0B2FC60
:105130002046FFF791FF03902046FFF79FFF039A59
:105140000096034611460AA800F0E8FC2046FFF747
:10515000A2FF01460AA800F071FDA37E43F01003F0
:10516000A3760AA800F0AFFD65B0F0BD12B1012A28
:1051700005D070470B6803604B684360704701F1CE
:105180000803013813F8012D00F8012F8B42F9D1E3
:105190007047102200210AF04FB830B50B46024686
:1051A00001F1100518685968144603C40833AB426E
:1051B0002246F7D130BD102308608B80704738B588
:1051C0004FF6FE738380C38903F0FE0343F4FE436E
:1051D000002543F001030446C38145704580C0F8B3
:1051E0000650C0F80A50056180F859502430FFF786
:1051F000D0FF04F13400FFF7CCFF04F14400FFF7C7
:10520000C8FF656584F8585004F15C00BDE838407B
:10521000FFF790BC37B5174D019104462846FEF7BD
:1052200069FB20702846FEF751FB0199606104F18B
:10523000180000F0D5FA0021C4E90711102204F18A
:10524000240009F0F9FF1022002104F1340009F0D4
:10525000F3FF0021102204F1440009F0EDFF234682
:10526000054A43F85C2F20466366FFF7A8FF2046F7
:1052700003B030BD481B0020B9570000007840F053
:10528000E40070470148FEF707BA00BF481B002042
:105290008180014800F014BB591B002007B50A6843
:1052A000C0F806204A68C0F80A2001226846FFF7C5
:1052B0005DFF0348694600F0FDFA03B05DF804FBAA
:1052C000591B0020437810B5044663B90748FEF720
:1052D00073FA50B90548FEF78FFA30B96378012B9D
:1052E00001D001236370002010BDFEE7481B0020A1
:1052F00010B504465C30FFF71DFC0648FEF77CFA4B
:1053000030B90448FEF762FA10B9637803B16070EF
:1053100010BD00BF481B002010B504460448FEF72E
:10532000FDFD20B96378022B1CBF0223637010BD02
:10533000481B002038B50123044603FA01F1002080
:10534000FFF7FAFA4FF4A07303FB00F5A37BDB072A
:105350000BD5636907489979FEF7E0FD294604F10A
:105360005C00BDE83840FFF7D7BB0248FEF744FABF
:10537000F4E700BF481B0020437803F0FB03032B36
:1053800010B5044625D10378DB0606D443691148DD
:105390009979FEF7C3FD00B1FEE76378042B1CBFCB
:1053A00004236370E3691BB1226A60690121984795
:1053B0006169094800F08AFA0D2808D161690B6912
:1053C00033B10023C1E90433034800F07FFA00B190
:1053D000FEE710BD481B0020591B0020704700004D
:1053E000437810B504467BB1033B042B0CD90378FA
:1053F0009B070BD50648FEF7BDFA6378052B01D055
:1054000005236370002000E00D2010BD0C20FCE798
:10541000481B00204378022B1CBF02234370183026
:1054200000F0EEB910B503789B07044600D5FEE7FF
:105430001048FEF74FFA7F2806D094F90F307F2BE3
:1054400001D0834200DAE073FDF77FFF2369C01AC1
:10545000002808DA216E04F15C004FF4FA32BDE84E
:105460001040FFF753BB94F90F102046BDE81040E1
:10547000FFF7D0BF481B0020007880F02000C0F369
:1054800040107047007880F00400C0F3800070473F
:10549000007880F04000C0F3801070474269437884
:1054A000126910B50446C2B1072B1CBF0723437015
:1054B000FFF7EEFFA8B10D48FEF7DAFC6369D3E908
:1054C00004218B18C3F18003C3420AD504F15C00A8
:1054D0008039BDE81040FFF719BB032B01D003232F
:1054E00043702046BDE81040FFF746BF481B002030
:1054F0002DE9FF470829DDE90C8905460F4692464C
:105500001C4603D011F0EF0F13D0FEE780F85820AF
:1055100000F124060FCB86E80F0098E80F0005F194
:10552000340686E80F0099E80F0005F1440686E886
:105530000F002846FFF7A0FF48B9CDE90190CDF84C
:1055400000800448234652463946FEF793FC04B0D7
:10555000BDE8F087481B002038B5054618300C46DA
:1055600000F054F96B6DA3429CBF01346C6538BDEB
:10557000C36970B505460C4616462BB121B11AB960
:10558000026A3146204698472846FFF775FF38B92A
:1055900034B1E37D9B0703D521692846FFF7DCFF83
:1055A0003246214605F11800BDE8704000F01AB9F6
:1055B0001FB50446406903681B781B072AD5837E04
:1055C000D90627D40DF10F01FFF77EFC10BB6069EF
:1055D000837EDA0703D494F85810FFF7C4FC204602
:1055E000FFF74AFFB0B19DF80F30082B12D1606968
:1055F00004F134038360837EDB0707D4616D01917E
:10560000FFF782FC01992046FFF7A6FF6069A11D04
:10561000FFF74AFD04B010BD38B54378052B0546A9
:105620000AD00024FFF7C4FF28466C8085F8594053
:10563000FFF734FF204638BD0D20FCE737B505469F
:105640000C46FFF719FFD8B90B681B781A0717D556
:105650008B7EDB0714D50DF103012046FFF734FCE8
:1056600000B1FEE79DF80330082B09D101A92046BF
:10567000FFF73AFC00B1FEE701992846FFF76CFFFF
:1056800003B030BD2DE9FF411D4604465C300E4697
:105690009046FFF74FFA0E2D4ED004D8002D4BD078
:1056A0000B2D0BD0FEE70F2DFCD10021B37E5B0745
:1056B00004D5B27904F1180000F09AF8314620467A
:1056C000FFF7BCFF0023A370E378002D36D02046FF
:1056D000FFF7D8FE074620B1777E9F4294BF002790
:1056E000012704F11800CDE9003742462B46314628
:1056F000039000F07EF8039847B3E3780133E3703A
:10570000B37E0E2D43F00203B37619D1637894F87B
:105710005910062B1CBF062363702046FFF70AFEB4
:1057200094F859300133DBB2052B28BF052384F8E8
:10573000593004B0BDE8F0810121B7E72F46D0E72A
:10574000204604B0BDE8F041FFF7A8BE6378022B05
:105750001CBF0223637042462B46314604B0BDE8AD
:10576000F04100F047B800004378033B10B5044611
:10577000042B1DD8DFE803F0030718140300BDE86D
:105780001040FFF7F9BD43690A489979FEF7C6FB57
:10579000616920460E23BDE810400022FFF772BF6A
:1057A000BDE81040FFF77ABEBDE81040FFF73ABEF3
:1057B00010BD00BF481B00200148FFF7D5BF00BF48
:1057C0006C1B002008B54165FFF756FE20B9BDE807
:1057D00008400248FEF774BB08BD00BF481B00200C
:1057E000704700000148FFF71DBA00BF5C1B002096
:1057F000704770470148FFF731BA00BF5C1B0020BB
:105800000148FFF745BA00BF5C1B0020704700004D
:1058100070B5002190B02648FEF773F82448FEF7D3
:10582000A3F82348FEF7A3F82148FDF7BDFF48B1D0
:105830001F48FDF7E1FF00B1FEE71D48FDF7C6FF79
:1058400000B1FEE70CAD1A484FF6FF710024FDF7DA
:1058500023FF29461648CDE90C44FDF727FF1448DD
:105860004FF6FE71FDF734FF102221460DEB0200CA
:1058700008AE09F0E1FC21461022304609F0DCFCBC
:1058800021461022284609F0D7FC04AB22462146C7
:10589000CDE9015406480096FEF7ECFA214604488B
:1058A000FEF70EFB02482146FEF728F810B070BD47
:1058B000481B00200148FDF7F9BE00BF481B00202F
:1058C0000148FDF705BF00BF481B00200148FDF758
:1058D000A3BF00BF481B002090F88C3013B11230DA
:1058E00000F04ABA704790F88C3013B1123000F0D3
:1058F00049BA704710B490F88C4024B15DF8044B5D
:10590000123000F045BA5DF8044B704790F88C30C7
:1059100013B1123000F042BA7047000000487047DF
:1059200000F8FF0708B5FFF7F9FF08BDFF20704733
:10593000FF2070471FB50446084601A9FFF73BFC4E
:1059400001A9204600F0B3F904B010BD2DE9F84FCD
:1059500013F00109DDF828A004460E4690461F46C4
:1059600002D1043B0C2B00D9FEE713464A46D0B2C5
:1059700001320BB11B0AFAE79DF82C50022838BF00
:1059800002200D2D28BF0D25C5F10F039842B8BF89
:10599000D8B2C0F10F039D42C8BFDDB20138BB1EB3
:1059A000002E5FFA80FB4FEA630314BF40220022FF
:1059B0004BEAC303134384F820312A46514604F2CC
:1059C000211009F011FC04F22F1142460F239D42D1
:1059D00005D2013B01F80129DBB2120AF7E704F511
:1059E00090721146204600F068F98EB1B6F57F4FEF
:1059F00094F8202194F82131C6F30720F1B229D27E
:105A000042404B4084F8202184F821314FF00209B4
:105A10002A46514684F830B104F2311009F0E4FB13
:105A200005F23110C5F10F020021204409F004FCF9
:105A30000023C4E95538C4F85C31102384F864515C
:105A4000C4F85061A4F86091A4F8623184F86571DB
:105A5000BDE8F88F83F0FE0384F8213194F82231F9
:105A600083EA166384F8223194F82331D24383EA1F
:105A7000164384F8202184F8233194F8242194F8E3
:105A8000253142404B4084F8242184F825314FF0E1
:105A90000609BDE72DE9F843D0F854311546134403
:105AA000D0F850219342044620D80E464F1900F5F5
:105AB00090794FF00008B74219D0B4F86031102B3C
:105AC00006D14A464946204600F0F7F8A4F860811E
:105AD000B4F860315A1C2344A4F8602116F8010B75
:105AE00093F82021504083F82001E4E7FEE7D4F842
:105AF0005421D4F8503115449D42C4F854510BD16F
:105B0000B4F860312BB104F590721146204600F0D4
:105B1000D4F80023A4F86031BDE8F8832DE9F74FED
:105B200098469DF830300193D0F85C311746D0F894
:105B300058214344934204460E4600D9FEE7DFF85D
:105B4000F8A00025AAEB000A00F5A07B454550D03F
:105B5000B4F86231102B17D194F8641104F23F129B
:105B60000AEB0203994206DA13780133DBB202F83A
:105B70000139002BF4D05A4604F59871204600F004
:105B80009CF80023A4F86231B4F86221019B511CF7
:105B900089B222441BBB16F80590A4F8621192F852
:105BA000402189EA02027A55B4F86021102A08D10E
:105BB00004F590721146204600F07FF80022A4F808
:105BC0006021B4F86021511C2244A4F8601192F8BD
:105BD000201189EA010382F820310135B6E7785DAA
:105BE000A4F8621192F8403180EA030906F80590A2
:105BF000DAE7D4F85C311D44D4F85831C4F85C516C
:105C00009D4215D3B4F860312BB104F59072114662
:105C1000204600F052F894F8642102F2311000217D
:105C2000C2F10F02204403B0BDE8F04F09F004BBFD
:105C300003B0BDE8F08F00BFD0FEFFFF38B5D0E95C
:105C400056329A4204460D4600D0FEE700F59871A0
:105C500000F5A07200F031F804F59071002394F87B
:105C600065219A4206DD11F8012BC87F4240EA54B3
:105C70000133F4E738BD10B504681C6044685C600B
:105C8000080E1872080C5872080A9872D9721A73A2
:105C900010BD00F1080310B503604FF48C738380CE
:105CA000044600F018F800B1FEE7204610BD08B524
:105CB00000F020F800B1FEE708BD08B500F034F8A8
:105CC00000B1FEE708BD10B5044600F041F800B190
:105CD000FEE7204610BD08B540B18388B3F58C7F40
:105CE00006D3006800F03CFE002008BD0720FCE75A
:105CF0000120FAE713B50446684600F038F87CB195
:105D0000A388B3F58C7F0DD3BDF8042000992068DB
:105D1000D20000F049F8003818BF012002B010BDD1
:105D20000720FBE70120F9E708B5134660B1828838
:105D3000B2F58C7F0AD30A460068012100F050FEBC
:105D4000003818BF012008BD0720FCE70120FAE752
:105D500008B540B18388B3F58C7F06D3006800F0A6
:105D60000DFE002008BD0720FCE70120FAE70A68C5
:105D700002608A88828070470148FFF7F9BB00BF44
:105D80006C1B00200148FFF729BB00BF6C1B0020E3
:105D90000148FFF777BC00BF6C1B00200148FFF7EC
:105DA00039BB00BF6C1B0020E0B1D9B1C02A08B5D7
:105DB00007D0B2F5807F12D0802A0DD06FF01F007F
:105DC00008BD0C23036000F108034360D2081846A5
:105DD00000F07AFB002008BD0A230360F3E70E23DE
:105DE0000360F0E76FF02000704700BF10B5044675
:105DF0001046D4E90032063B9B0000F037FA002041
:105E000010BD00BF10B504461046D4E90032063B71
:105E10009B0000F003F8002010BD00BF2DE9F14FFA
:105E200003F11C0402EB840C4FEA930B8A68CB68E5
:105E30000868496800F046F93CE9F00060406940B4
:105E400072407B400BF1060E4EE083EA134480EA79
:105E5000134582EA134746BA96EA3444604000F09C
:105E60000F1684EA063420F00F1684EA161054BA8E
:105E700094EA0106724002F00F1486EA043622F01A
:105E80000F1486EA14124CBA6540694001F00F14F1
:105E900085EA043521F00F1485EA14115CBA6740D5
:105EA0007B4003F00F1487EA043723F00F1487EACE
:105EB000141344BA44404DBA4D4056BA56405FBAE6
:105EC0005F4087EA174886EA174B84EA17464FEA8D
:105ED00038488BEA1B4485EA1B4788EA1B4580EA61
:105EE0003440694072407B4000F0703400F08035EF
:105EF00000F00F3040EA440040EAD50080EA900408
:105F000004F0332480EA8400604001F0703401F032
:105F1000803501F00F3141EA440141EAD50181EABF
:105F2000910404F0332481EA8401614002F070346A
:105F300002F0803502F00F3242EA440242EAD50212
:105F400082EA920404F0332482EA8402624003F07D
:105F5000703403F0803503F00F3343EA440343EA1F
:105F6000D50383EA930404F0332483EA8403634073
:105F7000C943DB4381EA000483EA044686EA02015E
:105F800083EA014382EA334583EA144383EA040443
:105F900084EA00077FEA040A8AEA024A8AEA010BD5
:105FA00087EA11488AEA374A80EA060181EA1A41FB
:105FB0008AEA030A04EA0A00454088EA040707EA75
:105FC0000B0041408AEA0B0608EA060084EA3442E4
:105FD0008AEA3A4602EA060358404540414087EAC9
:105FE00037438BEA3B4003EA000985EA090582EA68
:105FF0000309464009EA0606714085EA010005EA00
:106000003546464006EA314181EA304181EA36466A
:1060100006EA304686EA354634400F4086EA0105F6
:1060200008EA050886EA3640024088EA020881EA62
:10603000314213405C4080EA020309EA030987EA1F
:106040000907674088EA040806EA0A0601EA0B0124
:106050008AEA0B0425408AEA3A44204045408BEA0C
:106060003B4B02EA0B02564084EA0B0423405940A2
:106070006E40694087EA364080EA384080EA06038D
:1060800080EA104481EA134585EA344585EA1742DF
:106090007D4082EA354180EA05403CE9F0006040FD
:1060A000694072407B40BEF1010E3FF6CEAE00F07B
:1060B0005FF810BC20606160A260E360BDE8F08F13
:1060C00000F002BA80EA101404F0F01480EA041020
:1060D000604081EA111404F0F01481EA0411614077
:1060E00082EA121404F0F01482EA0412624083EA95
:1060F000131404F0F01483EA0413634080EA1024BC
:1061000004F47F4480EA0420604081EA112404F40E
:106110007F4481EA0421614082EA122404F47F442E
:1061200082EA0422624083EA132404F47F4483EA6F
:106130000423634081EA500404F0553480EA4400AB
:10614000614083EA520404F0553482EA4402634019
:1061500082EA900404F0333480EA8400624083EAE7
:10616000910404F0333481EA84016340704700BF36
:1061700082EA900404F0333480EA8400624083EAC7
:10618000910404F0333481EA8401634081EA5004CD
:1061900004F0553480EA4400614083EA520404F07C
:1061A000553482EA4402634080EA102404F47F44B8
:1061B00080EA0420604081EA112404F47F4481EAEB
:1061C0000421614082EA122404F47F4482EA04221A
:1061D000624083EA132404F47F4483EA0423634087
:1061E00080EA101404F0F01480EA0410604081EAA0
:1061F000111404F0F01481EA0411614082EA1214CF
:1062000004F0F01482EA0412624083EA131404F0EA
:10621000F01483EA04136340704700BF2DE9F04F88
:106220004FF2F00280EA1031114080EA013048401C
:1062300041088208C3084FF0000EA3E000F01130BF
:1062400001F0113102F0113203F0113340EA410044
:1062500040EA820040EAC3004FF2F00280EA1031C7
:10626000114080EA01304840BDE8F08F2DE9F14F40
:1062700094464FEA930B8A68CB6808684968FFF731
:1062800021FF0BF1060E33E083EA134480EA134545
:1062900082EA134746BA96EA3444604000F00F168B
:1062A00084EA063420F00F1684EA161054BA94EAF1
:1062B0000106724002F00F1486EA043622F00F1431
:1062C00086EA14124CBA6540694001F00F1485EA61
:1062D000043521F00F1485EA14115CBA67407B4045
:1062E00003F00F1487EA043723F00F1487EA14131E
:1062F000BCE8F0006040694072407B4000F0E03450
:1063000000F0103500F00F3040EA540040EAC500BC
:1063100080EA900404F0332480EA8400604001F0B5
:10632000E03401F0103501F00F3141EA540141EA47
:10633000C50181EA910404F0332481EA84016140BB
:1063400002F0E03402F0103502F00F3242EA54025B
:1063500042EAC50282EA920404F0332482EA84020B
:10636000624003F0E03403F0103503F00F3343EAEA
:10637000540343EAC50383EA930404F0332483EA15
:106380008403634081EA324787EA134581EA354650
:1063900090EA060484EA034B82EA1B4280EA044442
:1063A00084EA054483EA144A85EA14448BEA044BE0
:1063B00084EA374481EA0B4181EA164104EA0A0083
:1063C000454082EA04082BEA080041408AEA0B06AD
:1063D00002EA060084EA34438AEA3A4603EA0607F8
:1063E00078404540414088EA38478BEA3B4007EA1D
:1063F000000985EA090583EA0709464006EA090615
:10640000714085EA010005EA3546464006EA314119
:1064100081EA304181EA364606EA304686EA354668
:10642000344008EA010886EA01052A4086EA364037
:1064300003405A4081EA31431F407C4080EA030711
:1064400009EA070988EA0908544088EA020806EAC6
:106450000A0601EA0B018AEA0B0215408AEA3A426F
:10646000104045408BEA3B4003405E4042401740AD
:1064700079404D404E40E443F64386EA18435D4080
:1064800085EA054083EA134386EA034183EA3842FA
:1064900084EA114383EA04435FEA3343BEF1010E09
:1064A0003FF6F2AE3FF5CAAEBCE8F000604069408E
:1064B00072407B40FFF75CFE10BC20606160A26010
:1064C000E360BDE8F08F00BF2DE9F04102F11C054B
:1064D0000646074600EB850851F8040B46F8040B06
:1064E000043AF9D14FF0010CFFF798FE5FEA302033
:1064F00080EA0C004FEA4C0C4FEA1C2140F21B12C0
:1065000001FB02F28CEA020C1ECF41404A4053408C
:106510005C401EC62000464510D02C2DE4D03C2DFA
:1065200006D1FFF77BFE06CF41404A4006C6100069
:1065300006CF41404A4006C61000D5E736E90F00B5
:10654000FFF7C0FD86E80F00043DF7D1BDE8F081FC
:1065500090B4ADF5016D00AF0023C7F80C380123EE
:10656000C7F8083826E007F58063D7F80C28D7F875
:10657000081843F822103B46D7F80828D7F80C181B
:1065800043F82210D7F808385A00D7F8083803F033
:106590008003002B01D01B2300E000235A40D7F8D2
:1065A00008385340DBB2C7F80838D7F80C38013345
:1065B000C7F80C38D7F80C38FF2BD4DD0023C7F808
:1065C0000C380123C7F808381BE0D7F80828D84949
:1065D000D7F80C3841F82320D7F808385A00D7F8F4
:1065E000083803F08003002B01D01B2300E00023B8
:1065F0005340DBB2C7F80838D7F80C380133C7F876
:106600000C38D7F80C38092BDFDDCA4B63221A701F
:10661000C94B002283F863200123C7F80C386DE0D2
:106620003B46D7F80C2853F82230C3F1FF0207F598
:10663000806353F82230C7F80838D7F80838C7F80D
:106640000438D7F804385A00D7F80438DB1113435C
:10665000DBB2C7F80438D7F80828D7F80438534015
:10666000C7F80838D7F804385A00D7F80438DB11CF
:106670001343DBB2C7F80438D7F80828D7F8043832
:106680005340C7F80838D7F804385A00D7F8043808
:10669000DB111343DBB2C7F80438D7F80828D7F862
:1066A00004385340C7F80838D7F804385A00D7F8E8
:1066B0000438DB111343DBB2C7F80438D7F80438C9
:1066C00083F06303D7F808285340C7F80838D7F891
:1066D0000838D9B2974AD7F80C3813440A461A70CA
:1066E000D7F80C38D9B2944AD7F8083813440A4678
:1066F0001A70D7F80C380133C7F80C38D7F80C38B3
:10670000FF2B8DDD0023C7F80C3806E1894AD7F846
:106710000C3813441B78C7F80838D7F808385A00E3
:10672000D7F8083803F08003002B01D01B2300E0CA
:1067300000235340DBB2C7F80438D7F80428D7F851
:1067400008385340DBB2C7F80038D7F808381A02C7
:10675000D7F804385A40D7F808381B045A40D7F8FD
:1067600000381B065A407549D7F80C3841F82320E9
:10677000724AD7F80C3852F823304FEA3362704926
:10678000D7F80C3841F823206D4AD7F80C3852F866
:1067900023304FEA33626B49D7F80C3841F8232095
:1067A000684AD7F80C3852F823304FEA336266490A
:1067B000D7F80C3841F823205F4AD7F80C38134437
:1067C0001B78C7F80838D7F80838002B18D03B4694
:1067D0009A6B3B46D7F8081853F821301A445B4BA4
:1067E00082FB03341319D911D317C91A0B461B02A4
:1067F0005B1AD11A07F5806353F82130184600E080
:106800000020D7F80838002B18D03B465A6A3B4680
:10681000D7F8081853F821301A444C4B82FB033444
:106820001319D911D317C91A0B461B025B1AD11AB7
:1068300007F5806353F821301B0200E00023584025
:10684000D7F80838002B18D03B465A6B3B46D7F890
:10685000081853F821301A443C4B82FB03341319B7
:10686000D911D317C91A0B461B025B1AD11A07F5A7
:10687000806353F821301B0400E000235840D7F810
:106880000838002B18D03B46DA6A3B46D7F8081880
:1068900053F821301A442D4B82FB03341319D911BC
:1068A000D317C91A0B461B025B1AD11A07F580636E
:1068B00053F821301B0600E0002380EA030224493C
:1068C000D7F80C3841F82320214AD7F80C3852F871
:1068D00023304FEA33621F49D7F80C3841F82320A0
:1068E0001C4AD7F80C3852F823304FEA33621A4961
:1068F000D7F80C3841F82320174AD7F80C3852F84B
:1069000023304FEA33621549D7F80C3841F8232079
:10691000D7F80C380133C7F80C38D7F80C38FF2BF0
:106920007FF7F4AE00BF07F50167BD4690BC704726
:10693000E03D0020E01B0020E02C0020E01C0020B7
:10694000E0200020E0240020E028002081808080DA
:10695000E02D0020E0310020E0350020E03900206B
:1069600080B582B000AF78604FF48C7200217868F7
:1069700008F062FC00BF0837BD4680BD80B582B01C
:1069800000AF78607B68002B05D04FF48C7178687D
:1069900000F042F800E000BF0837BD4680BD00BFF0
:1069A00080B584B000AFF860B9607A607A68B96881
:1069B000F868FFF71BFA00BF1037BD4680BD00BF67
:1069C00080B584B000AFF860B9607A607A68B96861
:1069D000F868FFF717FA00BF1037BD4680BD00BF4B
:1069E00080B584B000AFF860B9607A603B60BB6886
:1069F000012B06D13A687968F868FFF7F7F9034682
:106A000005E03A687968F868FFF7FCF9034618462C
:106A10001037BD4680BD00BF38B131B101440022FE
:106A20000346013081421A70FAD1704710B50368ED
:106A300003625A1E11468B4202D904892144FAE7A7
:106A400041620221017700210163A1F58031C0E993
:106A50000A33C0E90D13934202D901890A44FAE7C7
:106A6000C0E90F23C0E9113310BD10B50023016048
:106A70001144C0E90333C0E9053341600281FFF7E7
:106A8000D5FF10BDC0E903127047C0E90512704779
:106A9000012B09D0022B0ED073B9114442688A42EF
:106AA0000AD80389C91AFAE7891A02688A4203D9FF
:106AB00003891944FAE7FEE708467047012B0DD019
:106AC000022B14D0A3B98A4202D3521A90B2704753
:106AD00043680068591A121A0A44F7E78A4201D833
